:020000040800F2
:10000000A8050020AD010008B9200008B51D0008B2
:1000100085200008E9060008C3230008000000004E
:10002000000000000000000000000000BD200008EB
:100030009D07000800000000BB200008BF2000084A
:10004000C7010008C7010008C7010008C701000870
:10005000C7010008C70100089F070008C701000882
:10006000AD070008C7010008C7010008C701000864
:10007000C7010008C7010008C7010008C701000840
:10008000C7010008C7010008B5050008000000000E
:10009000000000000000000000000000C701000890
:1000A000C7010008C7010008C7010008C701000810
:1000B000C7010008C7010008C7010008C701000800
:1000C000C7010008C7010008C7010008C7010008F0
:1000D000C7010008C7010008C701000800000000B0
:1000E000A5070008C7010008C701000800000000BC
:1000F000000000000000000000000000C701000830
:1001000000000000C7010008C7010008C70100087F
:1001100000000000000000000000000000000000DF
:10012000ED060008C7010008C7010008C701000864
:10013000C7010008000000000000000000000000EF
:10014000000000000000000000000000C7010008DF
:10015000C7010008C7010008C7010008C70100085F
:10016000C7010008C70100080000000000000000EF
:10017000000000000000000000000000000000007F
:1001800000000000C701000800000000000000009F
:10019000C7010008C7010008DFF80CD000F0B0F973
:1001A0000048004711260008A8050020064880479F
:1001B00006480047FEE7FEE7FEE7FEE7FEE7FEE74C
:1001C000FEE7FEE7FEE7FEE745210008990100088B
:1001D0002DE9F05F0546002092469B46884606467C
:1001E000814640241BE0284641464746224600F00F
:1001F000E2F853465A46C01A914110D311461846A8
:10020000224600F0C9F82D1A67EB01084F46224636
:100210000120002100F0C0F817EB00094E41201E1C
:10022000A4F10104DFDC484631462A464346BDE8D6
:10023000F09FD2B201E000F8012B491EFBD27047BB
:100240000022F6E710B513460A4604461946FFF7A2
:10025000F0FF204610BD2DE9FE4F81EA030404F0B3
:10026000004421F0004100944FF0000B23F00043C4
:1002700050EA01045ED052EA03045BD0C3F30A548F
:10028000C1F30A552C44A4F2F3340194A0FB0254A8
:10029000C1F3130141F48011C3F3130343F480133A
:1002A00001FB024400FB034E840A970A44EA81548E
:1002B00047EA8357A4FB076802958D0A05FB07856B
:1002C0004FEA932C04FB0C542705029D4FEA065875
:1002D00047EA1637B5EB08056EEB070C870E920E52
:1002E00047EA811742EA8312A7FB0201B6EB0B0132
:1002F00064EB00042B0D43EA0C335E1844EB1C50F6
:10030000DA465146E7FB0201C5F313044FEA0B330B
:1003100043EA14534FEA0432019C43EA0603A4F172
:100320000C040294009CCDE900B400F09AF803B0EC
:10033000BDE8F08F00200146F9E700F0004230F000
:1003400000400AD0C10D01F56071C0F3160042EA09
:100350000151C20840071143704700200146704711
:1003600001F0004330B421F0004150EA010206D010
:100370000A0DA2F56072C1F31301002A02DC30BC41
:1003800000207047440F44EAC104C100E01830BCAB
:1003900000EBC25000F01FB8202A04DB203A00FA1C
:1003A00002F1002070479140C2F1200320FA03F3CC
:1003B000194390407047202A04DB203A21FA02F0CA
:1003C0000021704721FA02F3D040C2F1200291408F
:1003D0000843194670470029A8BF7047401C4900D0
:1003E00008BF20F00100704710B4B0FA80FC00FA9A
:1003F0000CF050EA010404BF10BC704749B1CCF1C5
:10040000200421FA04F411FA0CF118BF0121214350
:100410000843A3EB0C01CB1D4FEA00614FEA10200B
:1004200042BF002010BC704700EBC35010440029AD
:10043000A4BF10BC7047401C490008BF20F0010059
:1004400010BC704710B5141E73F1000408DA401C8C
:1004500041F1000192185B411A4301D120F00100E3
:1004600010BD2DE9F04D92469B4611B1B1FA81F2D3
:1004700002E0B0FA80F220329046FFF78DFF04468A
:100480000F4640EA0A0041EA0B0153465A46084328
:1004900013D0114653EA010019D0C8F1400250466A
:1004A000FFF789FF05460E46504659464246FFF77C
:1004B00073FF084305D0012004E020463946BDE81B
:1004C000F08D0020054346EAE0762C4337430A9836
:1004D0006305E40AA0EB08000022FD0A44EA475441
:1004E0000A3002D500200146E9E7010510196941EB
:1004F000DDE9084500196941BDE8F04DA2E70000BB
:10050000064C074D06E0E06840F0010394E8070060
:1005100098471034AC42F6D3FFF742FEC4270008D8
:10052000E427000810B50146806B026C12F0500FF2
:1005300005D0026CD20626D500F0F7F910BD016C8B
:1005400041F40071016401688A6812F0405F17D1BC
:10055000027EAAB9CA6A12F4700F02D08A685205E4
:100560000ED44A6822F020024A60016C21F48071A6
:100570000164016CC90403D4016C41F00101016400
:1005800000F0CCF910BD806BC26CBDE8104008468D
:10059000104710B5806B40210164416C41F00401AB
:1005A000416400F0C2F910BD10B5806B00F0BCF9D9
:1005B00010BD0000014800F0B9B90000280000207B
:1005C000464910B54A6822F440324A604A68436896
:1005D0001A434A6001684A6822F480724A600168DE
:1005E0004A68036942EA03224A6001684A6822F0C5
:1005F00040724A6001684A6883681A434A60016829
:100600008A6822F400628A6001688A68C3681A43B3
:100610008A60816A6FF07062D14201688A6822F054
:1006200070628A6001688A680CD0836A1A438A60A3
:1006300001688A6822F040528A6001688A68C36A49
:100640001A4301E022F040528A6001688A6822F071
:1006500002028A6001688A68037E42EA43028A6075
:1006600090F82010002901684A680FD042F4006217
:100670004A6001684A6822F460424A6001684A6838
:10068000174C436A04EB43331A4301E022F400623F
:100690004A600168CA6A22F47002CA620168CA6AC2
:1006A000838B104C04EB03531A43CA6201688A68B7
:1006B00022F400728A6001688A6890F8303042EA59
:1006C00043228A6001688A6822F480628A60016835
:1006D0008A68406942EA8020886010BD002301409A
:1006E00000E0FFFF0000F0FFFEE70000014800F01F
:1006F000BBBA00004401002001681823CAB2103AB6
:10070000B2FBF3F2054B6FF30901032A9B5CC3654F
:1007100000D9091D8165084670470000A42700081C
:1007200010B5014600208B698A6A4FF0C07453B13E
:10073000B3F5005F15D072B1012A0CD0022A0AD09D
:10074000032A09D104E01AB1012A06D0022A03D1F2
:10075000C96AC90100D5012010BDC96AA142FAD0F9
:1007600010BD002AF7D0012AF2D0022AF3D0032AC2
:10077000F3D010BD30B50468256825F480252560C8
:10078000046863608368402B036803D09960006845
:10079000C26030BD9A600068C16030BD7047012002
:1007A00000F010BC4FF4805000F00CBC042000F0AE
:1007B00009BC70477047000078B50024009490F899
:1007C0003C20012A19D0012280F83C200A68072326
:1007D0000568092A13D9EE680A3A02EB42029340EF
:1007E0009E43EE600B788A680A3B03EB43039A4012
:1007F0000368DD682A43DA6010E0022078BD2E69C4
:1008000002EB420293409E432E610B788A6803EB11
:1008100043039A4003681D692A431A614A681F23EB
:10082000072A13D205686E6B521E02EB82029340B8
:100830009E436E630A8893B20A79521E02EB8202CB
:1008400093400268556B2B43536327E005680D2ADC
:1008500012D22E6BD21F02EB820293409E432E6374
:100860000B790A88DB1F92B203EB83039A4003687B
:100870001D6B2A431A6311E0EE6A0D3A02EB820205
:1008800093409E43EE620B790A880D3B92B203EBD4
:1008900083039A400368DD6A2A43DA621B4B0568CA
:1008A000194A9D420AD10D68122D07D1556825F4C9
:1008B00000055560556845F48005556005689D4202
:1008C0001DD1134D0B68AB4201D0112B17D15368CA
:1008D00023F480035360536843F4000353600968B2
:1008E000A9420CD10B490C4A0968B1FBF2F101EBAA
:1008F0008101490000E0491E00910029FBD180F8E8
:100900003C40002078BD0000002301400020014051
:10091000120000102400002040420F00014801692D
:10092000C1607047000000207047704770B50446F2
:10093000006801684268C1F34001C2F3401251B33C
:100940004AB3216CC90603D4216C41F400712164BF
:10095000816811F0405F17D1217EA9B9C16A11F4F5
:10096000700F02D0816849050ED4416821F0200142
:100970004160206C20F480702064206CC00403D49B
:10098000206C40F0010020642046FFF7C7FF21687B
:100990006FF012000860206801684268C1F38001AE
:1009A000C2F3C01289B382B3216CC90603D4216C8F
:1009B00041F400512164816811F4401F1ED1816B04
:1009C00011F4401F02D08168490517D441684905D8
:1009D00014D4816811F0405F10D1217E71B9416853
:1009E00021F080014160206C20F480502064206C54
:1009F000C00503D4206C40F0010020642046FFF7BE
:100A0000D9FE21686FF00C00086020680168426818
:100A100011F0010FC2F380120ED06AB10068C00756
:100A20000AD0206C40F480302064204600F046F864
:100A300021686FF001000860206801684268C1F316
:100A40004011C2F3806200290DD0002A0BD0616CE6
:100A500041F0020161646FF0200505602046FFF758
:100A600064FF2068056070BD70B504004FF000059C
:100A700003D0206C002610B107E0012070BD204695
:100A800000F01EF8666484F83C60206CC00610D448
:100A9000206C20F4885040F0020020642046FFF7CC
:100AA0008FFD6664206C20F0020040F0010020649D
:100AB00000E0012584F83C60284670BD70470000C6
:100AC00070B586B0064614216846FFF7B9FB214988
:100AD000306888423CD120480025016841F480718B
:100AE0000160006800F4807005901B4814380168AC
:100AF00041F0010101600068694600F001000590C5
:100B0000022000900320CDE90105144800F066FAA8
:100B1000144C1348C4E900050015A560C4E903504E
:100B2000800060618000A0618011C4E90705204653
:100B3000656200F069F908B1FFF73BFEB46300227B
:100B400011461220A66300F08BFC122000F07AFC04
:100B500006B070BD00200140443802400000024051
:100B60001064024044010020F8B50E4600210446FE
:100B7000009190F83C00012807D0012084F83C0047
:100B800020688368DB0702D011E00220F8BD83688B
:100B900043F0010383602D482D4B0068B0FBF3F058
:100BA00000EB400000E0401E00900028FBD12068D0
:100BB0008368DB0748D0236C40F20165AB4343F404
:100BC000807323644068400505D5206C20F40050F4
:100BD00040F480502064206CC00404D5606C20F088
:100BE0000600606400E0616484F83C10A16B1A4860
:100BF000184DC863A16B19480864A16B1848C864F4
:100C000021686FF0220008602068416841F080612F
:100C100041602068816841F48071816021681346D9
:100C200032464C31A06B00F059F96868C006206864
:100C300002D00C49884207D1816811F0405F03D18E
:100C4000816841F0804181600020F8BD24000020CF
:100C500040420F000023014025050008A9050008B7
:100C600093050008002001402DE9F84304464FF0A9
:100C70000009CDF8009063484FF41651A56D006847
:100C8000B0FBF1F72E6894F85C10082000FA01F12F
:100C900031420FD021680A6852070BD50A6822F04A
:100CA00004020A6094F85C108840A860606D40F00F
:100CB0000100606594F85C104FF0010808FA01F03B
:100CC000304208D021684969090604D5A860606DE2
:100CD00040F00200606594F85C10042088403042C7
:100CE00008D021680968890704D5A860606D40F0C4
:100CF0000400606594F85C1010208840304218D0E1
:100D000021680968090714D5A860206801684903AB
:100D100004D50068000308D5A16C07E00168C90587
:100D200003D4016821F008010160216C09B120465B
:100D3000884794F85C1020208840304231D02168E8
:100D40000968C9062DD5A86094F8350005282068E3
:100D5000016806D0490347D5006800031DD4616CC3
:100D60001CE021F0160101602068416921F080013A
:100D70004161206C08B9A06C20B12068016821F0A5
:100D80000801016094F85C103F208840A86084F856
:100D9000349084F83580216D1FE0E16B09B1204665
:100DA0008847606D00282BD0606DC00714D00520E7
:100DB00084F835002068016821F001010160009885
:100DC000401C0090B84203D820680068C007F6D1E4
:100DD00084F8349084F83580E16C002910D001B09B
:100DE0002046BDE8F04308470168C905D5D401682D
:100DF00021F01001016084F8349084F83580CCE74C
:100E0000BDE8F883240000202DE9F041044600F0FD
:100E1000C1F906465CB1002584F83450022084F8FC
:100E200035002068016821F0010101600DE001201A
:100E3000BDE8F08100F0AEF9801B052805D920201F
:100E40006065032084F83500F2E720680068C00779
:100E5000F0D12268116820480140D4E90103184309
:100E6000D4E903363343184363691843A36918432D
:100E7000E3691843236A18430843616A042903D1CC
:100E8000D4E90B1319430843106020684069666A6F
:100E900020F0070130460E43012704280CD1A06A38
:100EA0000643E06A40B12046FFF73AFC20B14020FB
:100EB000606584F83570BAE7206846612046FFF720
:100EC0001BFC94F85C203F2191408160656584F8AB
:100ED00035700020ACE700003F8010F02DE9F041B4
:100EE0000446866D90F83400002501280DD00120BD
:100EF00084F8340094F835700020012F07D084F86E
:100F0000340002252846BDE8F0810220FBE70227D5
:100F100084F8357060652046FFF72CFC94F85C106F
:100F20003F208840B0602068016841F016010160F0
:100F3000206C20B12068016841F008010160206840
:100F4000016841F001010160DCE7000070B5044672
:100F500000F020F90546601C02D0044800780444E3
:100F600000F018F9401BA042FAD370BD1800002011
:100F700070B501280BD004281DD0B0F5805F1ED1BC
:100F8000012200210220BDE8704001F07DB801225D
:100F90000B4D94032146284600F0F6F801F09EFB25
:100FA0004FF4FA6001F026FB21462846BDE8704068
:100FB000002200F0E9B8002201210846E3E770BDF5
:100FC000000C0240044910B50A68024202D00860D1
:100FD000FFF7CEFF10BD0000143C01402DE9F84F93
:100FE00000224FF0010803254FF00F0E0B6808FA9E
:100FF00002F42340A34271D14E68012E05D0022E87
:1010000003D0112E01D0122E15D18668570005FA93
:1010100007FC26EA0C06D1F80CC00CFA07FC4CEAD7
:10102000060CC0F808C04668A6430C79C4F3001447
:10103000944034434460C668570005FA07FC8C6846
:1010400026EA0C06BC403443C4604C68022C01D034
:10105000122C13D1D40800EB8404A346D4F82090BA
:1010600054074FEAD46A0EFA0AF629EA06090E690D
:1010700006FA0AF646EA0906CBF8206004680E79FB
:1010800024EA0C0406F00306BE40264306604C68C2
:10109000E40056D52E4C266846F480462660246827
:1010A00022F0030604F4804400942A4C3444A446FD
:1010B000D4F808489607370F0EFA07F6B443264EC1
:1010C000B04201D1002615E0244EB04201D10126E4
:1010D00010E0234EB04202D102260BE031E0214E57
:1010E000B04201D1032605E01F4EB04201D10426D3
:1010F00000E00726BE402643CCF808681B4E346843
:101100004F689C43FF0300D51C433460174E361DC7
:1011100034684F689C43BF0300D51C433460134EB2
:10112000083634684F689C43FF0200D51C43346086
:101130000E4E0C3634684F689C43BF0200D51C43EA
:101140003460521C102AFFF451AFBDE8F88F000044
:1011500044380240003001400000024000040240D8
:1011600000080240000C024000100240003C014018
:101170000069084000D001207047426931EA02024C
:1011800000D10904816170470AB181617047090487
:10119000FBE700000148806870470000180000204D
:1011A00070B5040025D094F83D00002520B984F8DE
:1011B0003C50204600F0B8F8242084F83D00206818
:1011C000016821F0010101602068016841F40041DB
:1011D00001602068016821F40041016000F00CFA10
:1011E0004D4A6168914201D84C4900E04C4988421F
:1011F00001D2012070BD4B492368B0FBF1F15E685C
:1012000026F03F060E435E606368934206D94FF4B2
:10121000967359434FF47A73B1FBF3F12368491C79
:101220001E6A26F03F06314319626168914210D868
:101230004900401EB0FBF1F2521CC2F30B02042A1B
:1012400001D2042022E0B0FBF1F0401CC0F30B00FF
:101250001CE0A268F2B301EBC10303EB0116431ECD
:10126000B3FBF6F35B1C43F480431B0549D092B3F8
:1012700001EBC10202EB0111401EB0FBF1F0401C7A
:10128000C0F30B0040F4804040F400402168CA697C
:101290004CF6FF739A431043C861D4E90710014329
:1012A0002068026822F0C00211430160D4E9030102
:1012B00001432068826848F2FF339A4311438160FA
:1012C000D4E9050108432168CA6822F0FF021043EF
:1012D000C86001E00EE016E02068016841F00101FD
:1012E00001602564202084F83D00256384F83E5089
:1012F000002070BD01EB4106431EB3FBF6F35B1CFF
:10130000B3E70120C2E701EB4101401EB0FBF1F061
:10131000401CC0F30B00B7E7A086010080841E00CC
:1013200000093D0040420F0010B586B0044614216C
:101330006846FEF785FF13492068884220D112488D
:10134000016841F0020101600068694600F0020096
:101350000590C020009012200190012002900320EF
:101360000390042004900948FFF738FE0648103027
:10137000016841F400110160006800F4001005905C
:1013800006B010BD00540040303802400004024056
:10139000024881680278114481607047180000207B
:1013A0000B4810B5016841F400710160016841F417
:1013B00080610160016841F480710160032000F0E8
:1013C0006FF8002000F006F800F024F8002010BDAF
:1013D000003C024070B50D4D04464FF47A712878F8
:1013E000B1FBF0F00A490968B1FBF0F000F0F2FA45
:1013F00048B9102C07D200222146501E00F030F8C8
:1014000000206C6070BD012070BD0000180000203D
:10141000240000200A4808B5016841F480410160B9
:10142000006800F4804000900548001F016841F00A
:1014300080510160006800F08050009008BD0000FD
:1014400044380240002809DB00F01F0201219140CE
:101450004009800000F1E020C0F800117047000052
:10146000F0B40E4B1B680C46C3F30223C3F107050F
:10147000042D00D90425191D072901D2002300E0FD
:10148000DB1E012606FA05F1491E214099409E40C7
:10149000761E16403143F0BC00F094BF0CED00E026
:1014A000064900F0070208684FF6FF03184040EABB
:1014B0000220034A10430860704700000CED00E072
:1014C0000000FA052DE9F0470E46050065D0DFF86B
:1014D0001481D8F80000F7B200F00F00B04207D234
:1014E00088F80070D8F8000000F00F00B04254D126
:1014F00028683D4C810712D5400703D5206840F489
:10150000E05020602878000703D5206840F4604050
:1015100020602068A96820F0F00008432060287847
:10152000C0072DD0304968680839012812D0022838
:1015300013D0032811D00968890700292DDA216802
:1015400021F0030101432160FFF724FE814641F2AF
:10155000883A0EE009688903EFE709688901ECE73A
:10156000FFF718FEA0EB0901514502D90320BDE8A1
:10157000F0872068696800F00C00B0EB810FEFD1B4
:10158000D8F80010404601F00F01B14207D90770AA
:10159000006800F00F00B04201D00120E7E7287892
:1015A000400705D52068E96820F4E0500843206032
:1015B0002878000706D52068296920F4604040EAB1
:1015C000C100206000F028F82168084AC1F3031127
:1015D000515CC8400649086006480068FFF7FAFEFB
:1015E0000020C4E7003C024008380240AC27000855
:1015F000240000201C0000200448054900680968F8
:10160000044AC1F38221515CC84070472400002085
:1016100008380240BC270008154810B5006810F0D3
:101620000C02144813D04110042A0FD0082A0ED1FE
:101630000F4C241F2268236802F03F025B0207D58B
:101640002068C0F38810A0FB010106E0084610BD29
:101650002168C1F38811A1FB00010023FEF7B8FD4A
:101660002168C1F30141491C4900B0FBF1F010BDF4
:10167000083802400024F4002DE9F84F040076D029
:101680002078DFF838A3CE4DC00749D0DAF8001033
:101690005046C1F38101012908D00068C0F38100E0
:1016A00002280AD1281D0068400206D52868800358
:1016B00036D560680028E2D032E06068B0F5803F3F
:1016C00010D0B0F5A02F286810D020F4803028600A
:1016D000286820F4802028606068A0B1FFF75AFDD8
:1016E00006460CE0286840F48030F4E740F480209F
:1016F0002860F7E7FFF74EFD801B642873D8286841
:101700008003F7D50CE0FFF745FD064605E000BF76
:10171000FFF740FD801B6428F0D828688003F7D4C9
:101720002078DFF8A08280074FF000093ED5DAF874
:101730000010504611F00C0F09D00068C0F3810072
:1017400002280BD19D48001F0068400206D428687B
:10175000800715D5E068012809D111E0E068B8B12B
:101760000120C8F80000FFF715FD064605E020E15E
:10177000FFF710FD801B0228C0D828688007F7D526
:101780002868216920F0F80040EAC10028600DE0D7
:10179000C8F80090FFF7FEFC064604E0FFF7FAFCED
:1017A000801B02281FD828688007F7D420780007FC
:1017B00022D5824E844861696C3671B10121016085
:1017C000FFF7E8FC074604E0FFF7E4FCC01B022833
:1017D00009D830688007F7D50EE0C0F80090FFF711
:1017E000D9FC074605E082E0FFF7D4FCC01B0228C5
:1017F0007DD830688007F7D42078400768D5DFF8B7
:10180000BCB100270BF1380BDBF80000C0000BD493
:10181000DBF8001041F08051CBF80010DBF800003D
:10182000012700F080500090684E3068C00510D449
:10183000306840F480703060FFF7ACFC009005E049
:10184000FFF7A8FC0099401A022850D83068C0055C
:10185000F6D55A4EA068683601280FD005283068A2
:1018600010D020F001003060306820F004003060BB
:10187000A068B8B1FFF78EFC00900FE0306840F030
:101880000100F4E740F004003060F7E7FFF782FC66
:101890000099411A41F28830814266D83068800749
:1018A000F4D50EE0FFF776FC009007E0FFF772FC3E
:1018B0000099411A41F28830814256D83068800739
:1018C000F4D42FB1DBF8001021F08051CBF80010D8
:1018D000A069D0B3DAF800205146C2F38102022A8F
:1018E0004AD00228484607D0C8F8600000E03CE033
:1018F000FFF750FC04463BE04746C8F86000FFF79E
:1019000049FC064605E000BFFFF744FC801B0228A7
:101910002BD828688001F7D4D4E907010843A16ACD
:101920002B4A490802EB0141626A41EA82110843ED
:1019300094F82C1040EA01612048001F016001204A
:101940003866FFF727FC044605E034E0FFF722FC89
:10195000001B022809D828688001F7D52BE000BFBA
:10196000FFF718FC001B022802D90320BDE8F88FFE
:1019700028688001F4D41EE00128F7D00868E269E5
:1019800000F48001914214D1226A00F03F0191429B
:101990000FD147F6C071626A0140914209D1A26A33
:1019A00000F44031914204D1E16A00F07060884255
:1019B00001D00120DAE70020D8E700000838024013
:1019C0000038024000004742800E4742007000404D
:1019D0000000FFFF10B5401EB0F1807F01D3012051
:1019E00010BD4FF0E02460610F21601700F0EAFCA9
:1019F0000020A06107202061002010BD10B590F8E4
:101A00003C20012A22D0012280F83C20CA688C6840
:101A100022F4407222434C6822F4806222430C6814
:101A200022F4006222430C6922F4805222434C6962
:101A300022F400522243C969002322F480420A435F
:101A400001684A6480F83C30002010BD022010BDBF
:101A500070B590F83C20012A2CD0012480F83C403D
:101A6000022280F83D2003685A689D6822F07006C3
:101A70000A6832435A60104B02689A420ED0B2F1A3
:101A8000804F0BD00D4B9A4208D00D4B9A4205D097
:101A90000C4B9A4202D00C4B9A4204D1496825F073
:101AA00080031943916080F83D40002180F83C108C
:101AB000084670BD022070BD0000014000040040D7
:101AC00000080040000C00400040014010B5040038
:101AD00003D094F83D0010B107E0012010BD0020B4
:101AE00084F83C00204600F00DF8022084F83D0008
:101AF000211D206800F034FB012084F83D00002007
:101B000010BD000008B500680C49884208D10C4897
:101B1000016841F001010160006800F001000BE084
:101B20000849884209D10648001F016841F00401B4
:101B30000160006800F00400009008BD0000014052
:101B4000443802400008004070B5044690F83C005C
:101B5000012817D0012584F83C50022084F83D006C
:101B60002068826822F0770222F47F42826008684F
:101B7000502830D00DDC20284DD005DC98B310283B
:101B80003BD148E0022070BD302844D0402834D1F9
:101B900039E0602828D0702806D0B0F5805F2CD0BE
:101BA000B0F5005F29D10AE0CB68D1E901212068B6
:101BB00000F02FFB2068816841F0770109E0CB68D5
:101BC000D1E90121206800F024FB2068816841F4FC
:101BD0008041816011E0CA684968206800F0CEFB4E
:101BE0005021206807E016E0CA684968206800F0C4
:101BF000D6FB6021206800F016FB84F83D500020E1
:101C000084F83C0070BDCA684968206800F0B6FBE3
:101C100040212068EFE7226801461046EBE700000C
:101C200010B586B0044614216846FEF709FB0E493C
:101C30002068884216D10D480021026842F0010256
:101C40000260006800F0010005904FF4E060009031
:101C50000220CDE901010120CDE9031069460448C5
:101C6000FFF7BCF906B010BD00000140303802405B
:101C70000000024070B5044690F83C000D46012873
:101C80000DD0012684F83C60022084F83D0042B16A
:101C9000042A18D0082A2AD00C2A4DD139E0022073
:101CA00070BD206800F0C8FA2068816941F0080121
:101CB00081612068816921F0040181612068816966
:101CC0002A69114311E0206800F0DEFA206881697A
:101CD00041F4006181612068816921F48061816142
:101CE000206881692A6941EA0221816124E0206833
:101CF00000F0F6FA2068C16941F00801C16120686E
:101D0000C16921F00401C1612068C1692A691143D8
:101D100011E0206800F010FB2068C16941F4006107
:101D2000C1612068C16921F48061C1612068C16915
:101D30002A6941EA0221C16184F83D60002084F8EB
:101D40003C0070BD10B5040003D094F83D0010B104
:101D500007E0012010BD002084F83C00204600F080
:101D60000CF8022084F83D00211D206800F0F8F9ED
:101D7000012084F83D00002010BD704710B50446D6
:101D80000068012200F038FA09492068884203D12E
:101D9000416C41F4004141642068816801F0070111
:101DA000062903D0016841F001010160002010BD47
:101DB00000000140FEE700007FB5002411480094B8
:101DC000019402940E49039401604FF44031C0E93C
:101DD000011401250461057680F820400A49C0E914
:101DE0000A14C561C46080F830504561FEF73CFEBE
:101DF0000095CDE9015469460248FEF7DDFC7FBD40
:101E000000200140280000200100000F2DE9F043D0
:101E100087B014216846FEF713FA51480024016880
:101E200041F080010160016801F0800105910168C5
:101E300041F001010160016801F0010105910168B3
:101E400041F002010160016801F0020105910168A1
:101E500041F008010160016801F008010591016885
:101E600041F004010160016801F00401059101687D
:101E700041F0100101600068DFF8E88000F0100018
:101E80004FF440460590002231464046FFF77CF96A
:101E9000DFF8D4904EF61067002239464846FFF727
:101EA00073F9324D0520CDE90005694602943048AA
:101EB000FFF794F800960126CDE901646946404693
:101EC0000394FFF78BF80097CDE901646946484613
:101ED0000394FFF783F84FF44C6002268DE851001D
:101EE000244F69463846FFF779F83002CDE90004FF
:101EF000694638460294FFF771F8F002CDE9000513
:101F0000694602943846FFF769F80820CDE90004D5
:101F1000694648460294FFF761F8CDE900646946D6
:101F200015480294FFF75AF8002211460620FFF7E1
:101F300097FA0620FFF786FA002211460820FFF7DD
:101F40008FFA0820FFF77EFA002211462820FFF7BB
:101F500087FA2820FFF776FA07B0BDE8F083000083
:101F60003038024000040240000C02400000111012
:101F700000000240000802400010024010B596B078
:101F800000240F9410941194129413941C21684609
:101F90001494FEF755F9202107A8FEF751F92448BB
:101FA000224901604FF44071C0E90114FE21C0E9EB
:101FB000031444618461FFF789FD4FF480500F9052
:101FC0000FA91B48FFF7C0FD1948FFF7BBFE13948C
:101FD00013A917481494FFF73BFD6020CDE90004D6
:101FE00002940394049405940022694610480694D0
:101FF000FFF740FE042269460D48FFF73BFE08222A
:1020000069460B48FFF736FE0794089409944FF48D
:1020100000500A94CDE90B4007A905480E94FFF73C
:10202000EDFC0348FFF7FCFD16B010BD00000140B9
:10203000C400002010B586B000241148009401941B
:102040000294039404940D49059401606321C0E94E
:102050000114C46004618461FFF738FD4FF48050BF
:10206000009069460648FFF76FFD049404A90448F0
:102070000594FFF7EDFC06B010BD0000000800401D
:1020800004010020FEE7000070B51446084A094D1F
:1020900090600A464FF400412846FFF775F8224643
:1020A0002846BDE870404FF40051FFF76DB80000BE
:1020B00000000020000C0240704770477047FFF797
:1020C00067B9000030B593B030216846FEF7B8F824
:1020D00014210CA8FEF7B4F818480025016841F057
:1020E00080510160006800F0805011901448016830
:1020F00041F4404101600068022400F44040119026
:1021000001200090000401908001CDE9064008AA5A
:102110000420642182E813000B906846FFF7ACFAB4
:102120000CA90F2081E83100E002CDE90F05032161
:102130000CA8FFF7C7F913B030BD000040380240CB
:10214000007000400548016841F4700101600349D6
:102150004FF00060803908607047000088ED00E0B3
:10216000F0B502681D4B1E4C9F031E4D1E4E98423B
:1021700007D0B84205D0A04203D0A84201D0B04257
:1021800004D122F0700C4A6842EA0C02984210D046
:10219000B8420ED0A0420CD0A8420AD0B04208D01B
:1021A000124CA04205D0124CA04202D0114CA042C9
:1021B00003D122F44074CA6822434C6922F08002A1
:1021C000224302608A68C2620A688262984201D130
:1021D0000969016301214161F0BD00000000014077
:1021E0000004004000080040000C00400040014096
:1021F000004401400048014010B501F01F030121D7
:10220000046A99408C430462016A9A401143016256
:1022100010BD10B5846842EA032224F47F440A43C7
:102220002243826010BD826822F070020A4342F0AD
:10223000070181607047000030B5026A22F0010298
:102240000262026A4368846924F073050C682C43B7
:1022500022F002058A682A430A4DA8420BD122F0D7
:102260000805CA6823F440732A434D6922F004022A
:102270001D438B692B43436084614968416302625B
:1022800030BD00000000014030B5026A22F01002AB
:102290000262026A436884690D6824F4E64444EAF1
:1022A00005248D6822F0200242EA05120B4DA84257
:1022B0000ED1CD6822F0800242EA05124D6923F466
:1022C000406343EA85038D6922F0400243EA8503B7
:1022D0004360846149688163026230BD000001404F
:1022E00030B5026A22F480720262036A4268C469ED
:1022F00023F4007324F073050C682C438D6843EAC3
:1023000005230C4DA8420ED1CD6823F4006343EAA7
:1023100005234D6922F4405242EA05128D6923F4E7
:10232000806342EA05124260C4614968C163036286
:1023300030BD00000000014030B5026A22F4805236
:102340000262046A4268C3690D6823F4E64343EA03
:1023500005238D6824F4005444EA0534064DA84250
:1023600004D14D6922F4804242EA85124260C36181
:1023700049680164046230BD0000014010B5036A81
:10238000046A24F001040462846924F0F00444EA3D
:10239000021423F00A020A438461026210BD10B5E0
:1023A000036A23F0100303628369046A23F4704311
:1023B00043EA023224F0A00343EA01118261016280
:1023C00010BDFEE70907090E002804DB00F1E0203C
:1023D00080F80014704700F00F0000F1E02080F852
:1023E000141D704702E008C8121F08C1002AFAD164
:1023F00070477047002001E001C1121F002AFBD185
:10240000704700002DE9F041134D144E4FF4006168
:102410000B462A46304600F0B5F84FF40043104F03
:102420009C113A462146304600F0ACF861000B465C
:102430002A46304600F0A6F823462A468021304638
:1024400000F0A0F800F0ACF863013A463046BDE871
:10245000F041402100F096B8000C02400008024014
:10246000000402402DE9F041304D002210212846A1
:10247000FEF78AFE032000F075F90122102128469C
:10248000FEF782FE0A2000F06DF900221021284696
:10249000FEF77AFE08212846FEF76AFE0028F9D0EA
:1024A000234C0026666005E06068401C60600220E6
:1024B00000F058F908212846FEF75AFE0128F3D00B
:1024C00094ED010AB8EE400A10EE100AFDF735FF50
:1024D0009FED181B53EC112BFDF7BDFE9FED171B55
:1024E00053EC112BFDF7B7FEFDF73AFF15494FF4FA
:1024F00080676061884208DA012239462846FEF783
:1025000043FE01202070BDE8F081227832B188427C
:1025100004DD26704FF4FA50FEF718FD39462846C0
:10252000BDE8F0410022FEF72FBE0000000C024083
:1025300000000020666666666666064000000000D1
:10254000C58F913F0000E04010B501220A490B48B9
:10255000FEF70AFB084840F68C2310384FF4804100
:10256000C26807489A4201D2012200E00022BDE879
:102570001040FEF709BE00001000002028000020D7
:102580000004024070B51C461546FEF7F1FD002818
:1025900005D021462846BDE87040FEF7EEBD70BD6F
:1025A00010B502211248FEF7E3FD4FF0FF0211467D
:1025B000C8B1002000F0CAF84FF47A742046FEF744
:1025C000C5FCFF220021104600F0C0F82046FEF7AF
:1025D000BDFCFF210022084600F0B8F82046BDE807
:1025E0001040FEF7B3BCBDE81040FF2000F0AEB8CD
:1025F0000010024010B5002142F6FF2405E02246FB
:1026000002235B1C9342FCD3491C8142F7D310BDCB
:102610002DED028B82B0FEF7C3FEFFF753FDFFF7EF
:10262000F5FB28480024016841F48001016000683E
:10263000224600F48000009021463820FEF710FF6B
:102640003820FEF7FFFEFFF799FCFFF7B5FB1F48A8
:102650001D4901601E49C0E901144FF48041C0E9E1
:10266000034144618461C4610462FEF799FDFFF790
:10267000E1FC164800215430FFF780FB1348042189
:102680005430FFF77BFB114808215430FFF776FBED
:102690009FED108A104CFF221146104600F056F8AC
:1026A000A0680028F7D0FFF7ADFEFFF74DFF84EDDF
:1026B000058AA0680228EED1FFF7A4FEFFF7D2FE3C
:1026C000E9E700003038024000540040700000206C
:1026D000A0860100000000000000002070B5164C2C
:1026E0004FF40061204600F02DF8144E4FF40045E1
:1026F0002946304600F026F82115204600F022F841
:102700006115204600F01EF86910304600F01AF8F6
:10271000FF221146104600F019F8002229462046F3
:10272000FEF732FD0022A9102046FEF72DFD0449D8
:102730000020886070BD0000000C024000040240D0
:10274000000000200022FEF71FBD0000044B10B562
:102750001C686063186881631868C26310BD00005C
:10276000C4000020022800D202200D49401E08604B
:102770000B49012018390860081F016821F0010188
:10278000016007492C390A6842F001020A600168B9
:10279000C907FCD0016821F0010101607047000009
:1027A0002C0800400006101600061016000000005D
:1027B00000000000010203040607080900000000F1
:1027C00001020304E42700080000002028000000A4
:1027D000E42300080C2800082800002080050000E1
:1027E000F4230008000000000000000000000000CA
:1027F00000000000000000000000000001000000D8
:0C28000010000000000000000024F400A4
:040000050800019955
:00000001FF
